{
  "_format": "hh-sol-artifact-1",
  "contractName": "CarbonCreditMarketplace",
  "sourceName": "contracts/CarbonCreditMarketplace.sol",
  "abi": [
    {
      "inputs": [
        {
          "internalType": "address",
          "name": "_token",
          "type": "address"
        }
      ],
      "stateMutability": "nonpayable",
      "type": "constructor"
    },
    {
      "anonymous": false,
      "inputs": [
        {
          "indexed": true,
          "internalType": "uint256",
          "name": "listingId",
          "type": "uint256"
        }
      ],
      "name": "ListingCancelled",
      "type": "event"
    },
    {
      "anonymous": false,
      "inputs": [
        {
          "indexed": true,
          "internalType": "uint256",
          "name": "listingId",
          "type": "uint256"
        },
        {
          "indexed": true,
          "internalType": "address",
          "name": "seller",
          "type": "address"
        },
        {
          "indexed": false,
          "internalType": "uint256",
          "name": "amount",
          "type": "uint256"
        },
        {
          "indexed": false,
          "internalType": "uint256",
          "name": "pricePerToken",
          "type": "uint256"
        }
      ],
      "name": "ListingCreated",
      "type": "event"
    },
    {
      "anonymous": false,
      "inputs": [
        {
          "indexed": true,
          "internalType": "uint256",
          "name": "listingId",
          "type": "uint256"
        },
        {
          "indexed": true,
          "internalType": "address",
          "name": "buyer",
          "type": "address"
        },
        {
          "indexed": false,
          "internalType": "uint256",
          "name": "amount",
          "type": "uint256"
        },
        {
          "indexed": false,
          "internalType": "uint256",
          "name": "totalPrice",
          "type": "uint256"
        }
      ],
      "name": "ListingPurchased",
      "type": "event"
    },
    {
      "inputs": [],
      "name": "admin",
      "outputs": [
        {
          "internalType": "address",
          "name": "",
          "type": "address"
        }
      ],
      "stateMutability": "view",
      "type": "function"
    },
    {
      "inputs": [
        {
          "internalType": "uint256",
          "name": "listingId",
          "type": "uint256"
        }
      ],
      "name": "buyListing",
      "outputs": [],
      "stateMutability": "payable",
      "type": "function"
    },
    {
      "inputs": [
        {
          "internalType": "uint256",
          "name": "listingId",
          "type": "uint256"
        }
      ],
      "name": "cancelListing",
      "outputs": [],
      "stateMutability": "nonpayable",
      "type": "function"
    },
    {
      "inputs": [
        {
          "internalType": "uint256",
          "name": "amount",
          "type": "uint256"
        },
        {
          "internalType": "uint256",
          "name": "pricePerToken",
          "type": "uint256"
        }
      ],
      "name": "createListing",
      "outputs": [],
      "stateMutability": "nonpayable",
      "type": "function"
    },
    {
      "inputs": [
        {
          "internalType": "uint256",
          "name": "listingId",
          "type": "uint256"
        }
      ],
      "name": "getListing",
      "outputs": [
        {
          "components": [
            {
              "internalType": "uint256",
              "name": "id",
              "type": "uint256"
            },
            {
              "internalType": "address",
              "name": "seller",
              "type": "address"
            },
            {
              "internalType": "uint256",
              "name": "amount",
              "type": "uint256"
            },
            {
              "internalType": "uint256",
              "name": "pricePerToken",
              "type": "uint256"
            },
            {
              "internalType": "bool",
              "name": "active",
              "type": "bool"
            }
          ],
          "internalType": "struct CarbonCreditMarketplace.Listing",
          "name": "",
          "type": "tuple"
        }
      ],
      "stateMutability": "view",
      "type": "function"
    },
    {
      "inputs": [
        {
          "internalType": "uint256",
          "name": "",
          "type": "uint256"
        }
      ],
      "name": "listings",
      "outputs": [
        {
          "internalType": "uint256",
          "name": "id",
          "type": "uint256"
        },
        {
          "internalType": "address",
          "name": "seller",
          "type": "address"
        },
        {
          "internalType": "uint256",
          "name": "amount",
          "type": "uint256"
        },
        {
          "internalType": "uint256",
          "name": "pricePerToken",
          "type": "uint256"
        },
        {
          "internalType": "bool",
          "name": "active",
          "type": "bool"
        }
      ],
      "stateMutability": "view",
      "type": "function"
    },
    {
      "inputs": [],
      "name": "nextListingId",
      "outputs": [
        {
          "internalType": "uint256",
          "name": "",
          "type": "uint256"
        }
      ],
      "stateMutability": "view",
      "type": "function"
    },
    {
      "inputs": [],
      "name": "token",
      "outputs": [
        {
          "internalType": "contract GreenCreditToken",
          "name": "",
          "type": "address"
        }
      ],
      "stateMutability": "view",
      "type": "function"
    }
  ],
  "bytecode": "0x608060405234801561001057600080fd5b506040516114c63803806114c68339818101604052810190610032919061011c565b806000806101000a81548173ffffffffffffffffffffffffffffffffffffffff021916908373ffffffffffffffffffffffffffffffffffffffff16021790555033600160006101000a81548173ffffffffffffffffffffffffffffffffffffffff021916908373ffffffffffffffffffffffffffffffffffffffff16021790555050610149565b600080fd5b600073ffffffffffffffffffffffffffffffffffffffff82169050919050565b60006100e9826100be565b9050919050565b6100f9816100de565b811461010457600080fd5b50565b600081519050610116816100f0565b92915050565b600060208284031215610132576101316100b9565b5b600061014084828501610107565b91505092915050565b61136e806101586000396000f3fe60806040526004361061007b5760003560e01c8063aaccf1ec1161004e578063aaccf1ec1461012b578063de74e57b14610156578063f851a44014610197578063fc0c546a146101c25761007b565b8063107a274a14610080578063305a67a8146100bd5780634884f459146100e6578063a79123a914610102575b600080fd5b34801561008c57600080fd5b506100a760048036038101906100a29190610c0d565b6101ed565b6040516100b49190610d0d565b60405180910390f35b3480156100c957600080fd5b506100e460048036038101906100df9190610c0d565b6102a9565b005b61010060048036038101906100fb9190610c0d565b610573565b005b34801561010e57600080fd5b5061012960048036038101906101249190610d28565b610861565b005b34801561013757600080fd5b50610140610ad8565b60405161014d9190610d77565b60405180910390f35b34801561016257600080fd5b5061017d60048036038101906101789190610c0d565b610ade565b60405161018e959493929190610db0565b60405180910390f35b3480156101a357600080fd5b506101ac610b41565b6040516101b99190610e03565b60405180910390f35b3480156101ce57600080fd5b506101d7610b67565b6040516101e49190610e7d565b60405180910390f35b6101f5610b8b565b600360008381526020019081526020016000206040518060a0016040529081600082015481526020016001820160009054906101000a900473ffffffffffffffffffffffffffffffffffffffff1673ffffffffffffffffffffffffffffffffffffffff1673ffffffffffffffffffffffffffffffffffffffff16815260200160028201548152602001600382015481526020016004820160009054906101000a900460ff1615151515815250509050919050565b80600073ffffffffffffffffffffffffffffffffffffffff166003600083815260200190815260200160002060010160009054906101000a900473ffffffffffffffffffffffffffffffffffffffff1673ffffffffffffffffffffffffffffffffffffffff160361034f576040517f08c379a000000000000000000000000000000000000000000000000000000000815260040161034690610ef5565b60405180910390fd5b813373ffffffffffffffffffffffffffffffffffffffff166003600083815260200190815260200160002060010160009054906101000a900473ffffffffffffffffffffffffffffffffffffffff1673ffffffffffffffffffffffffffffffffffffffff16146103f4576040517f08c379a00000000000000000000000000000000000000000000000000000000081526004016103eb90610f61565b60405180910390fd5b60006003600085815260200190815260200160002090508060040160009054906101000a900460ff1661045c576040517f08c379a000000000000000000000000000000000000000000000000000000000815260040161045390610fcd565b60405180910390fd5b60008160040160006101000a81548160ff02191690831515021790555060008054906101000a900473ffffffffffffffffffffffffffffffffffffffff1673ffffffffffffffffffffffffffffffffffffffff1663a9059cbb8260010160009054906101000a900473ffffffffffffffffffffffffffffffffffffffff1683600201546040518363ffffffff1660e01b81526004016104fc929190610fed565b6020604051808303816000875af115801561051b573d6000803e3d6000fd5b505050506040513d601f19601f8201168201806040525081019061053f9190611042565b50837f411aee90354c51b1b04cd563fcab2617142a9d50da19232d888547c8a1b7fd8a60405160405180910390a250505050565b80600073ffffffffffffffffffffffffffffffffffffffff166003600083815260200190815260200160002060010160009054906101000a900473ffffffffffffffffffffffffffffffffffffffff1673ffffffffffffffffffffffffffffffffffffffff1603610619576040517f08c379a000000000000000000000000000000000000000000000000000000000815260040161061090610ef5565b60405180910390fd5b60006003600084815260200190815260200160002090508060040160009054906101000a900460ff16610681576040517f08c379a0000000000000000000000000000000000000000000000000000000008152600401610678906110bb565b60405180910390fd5b600081600301548260020154610697919061110a565b90508034146106db576040517f08c379a00000000000000000000000000000000000000000000000000000000081526004016106d290611198565b60405180910390fd5b60008260040160006101000a81548160ff0219169083151502179055508160010160009054906101000a900473ffffffffffffffffffffffffffffffffffffffff1673ffffffffffffffffffffffffffffffffffffffff166108fc349081150290604051600060405180830381858888f19350505050158015610762573d6000803e3d6000fd5b5060008054906101000a900473ffffffffffffffffffffffffffffffffffffffff1673ffffffffffffffffffffffffffffffffffffffff1663a9059cbb3384600201546040518363ffffffff1660e01b81526004016107c2929190610fed565b6020604051808303816000875af11580156107e1573d6000803e3d6000fd5b505050506040513d601f19601f820116820180604052508101906108059190611042565b503373ffffffffffffffffffffffffffffffffffffffff16847f0db6cd6881fc0453b2d01f52eb5a16417707659f245732abc10f847426e3525d8460020154846040516108539291906111b8565b60405180910390a350505050565b600082116108a4576040517f08c379a000000000000000000000000000000000000000000000000000000000815260040161089b9061122d565b60405180910390fd5b600081116108e7576040517f08c379a00000000000000000000000000000000000000000000000000000000081526004016108de90611299565b60405180910390fd5b60008054906101000a900473ffffffffffffffffffffffffffffffffffffffff1673ffffffffffffffffffffffffffffffffffffffff166323b872dd3330856040518463ffffffff1660e01b8152600401610944939291906112b9565b6020604051808303816000875af1158015610963573d6000803e3d6000fd5b505050506040513d601f19601f820116820180604052508101906109879190611042565b50600060025490506040518060a001604052808281526020013373ffffffffffffffffffffffffffffffffffffffff16815260200184815260200183815260200160011515815250600360008381526020019081526020016000206000820151816000015560208201518160010160006101000a81548173ffffffffffffffffffffffffffffffffffffffff021916908373ffffffffffffffffffffffffffffffffffffffff160217905550604082015181600201556060820151816003015560808201518160040160006101000a81548160ff02191690831515021790555090505060026000815480929190610a7d906112f0565b91905055503373ffffffffffffffffffffffffffffffffffffffff16817f12dc294b81a709d694b1337a350a12a00076c19a77a25aab67a5f0c07e0f164d8585604051610acb9291906111b8565b60405180910390a3505050565b60025481565b60036020528060005260406000206000915090508060000154908060010160009054906101000a900473ffffffffffffffffffffffffffffffffffffffff16908060020154908060030154908060040160009054906101000a900460ff16905085565b600160009054906101000a900473ffffffffffffffffffffffffffffffffffffffff1681565b60008054906101000a900473ffffffffffffffffffffffffffffffffffffffff1681565b6040518060a0016040528060008152602001600073ffffffffffffffffffffffffffffffffffffffff16815260200160008152602001600081526020016000151581525090565b600080fd5b6000819050919050565b610bea81610bd7565b8114610bf557600080fd5b50565b600081359050610c0781610be1565b92915050565b600060208284031215610c2357610c22610bd2565b5b6000610c3184828501610bf8565b91505092915050565b610c4381610bd7565b82525050565b600073ffffffffffffffffffffffffffffffffffffffff82169050919050565b6000610c7482610c49565b9050919050565b610c8481610c69565b82525050565b60008115159050919050565b610c9f81610c8a565b82525050565b60a082016000820151610cbb6000850182610c3a565b506020820151610cce6020850182610c7b565b506040820151610ce16040850182610c3a565b506060820151610cf46060850182610c3a565b506080820151610d076080850182610c96565b50505050565b600060a082019050610d226000830184610ca5565b92915050565b60008060408385031215610d3f57610d3e610bd2565b5b6000610d4d85828601610bf8565b9250506020610d5e85828601610bf8565b9150509250929050565b610d7181610bd7565b82525050565b6000602082019050610d8c6000830184610d68565b92915050565b610d9b81610c69565b82525050565b610daa81610c8a565b82525050565b600060a082019050610dc56000830188610d68565b610dd26020830187610d92565b610ddf6040830186610d68565b610dec6060830185610d68565b610df96080830184610da1565b9695505050505050565b6000602082019050610e186000830184610d92565b92915050565b6000819050919050565b6000610e43610e3e610e3984610c49565b610e1e565b610c49565b9050919050565b6000610e5582610e28565b9050919050565b6000610e6782610e4a565b9050919050565b610e7781610e5c565b82525050565b6000602082019050610e926000830184610e6e565b92915050565b600082825260208201905092915050565b7f4c697374696e6720646f6573206e6f7420657869737400000000000000000000600082015250565b6000610edf601683610e98565b9150610eea82610ea9565b602082019050919050565b60006020820190508181036000830152610f0e81610ed2565b9050919050565b7f4e6f742073656c6c657200000000000000000000000000000000000000000000600082015250565b6000610f4b600a83610e98565b9150610f5682610f15565b602082019050919050565b60006020820190508181036000830152610f7a81610f3e565b9050919050565b7f416c726561647920696e61637469766500000000000000000000000000000000600082015250565b6000610fb7601083610e98565b9150610fc282610f81565b602082019050919050565b60006020820190508181036000830152610fe681610faa565b9050919050565b60006040820190506110026000830185610d92565b61100f6020830184610d68565b9392505050565b61101f81610c8a565b811461102a57600080fd5b50565b60008151905061103c81611016565b92915050565b60006020828403121561105857611057610bd2565b5b60006110668482850161102d565b91505092915050565b7f4c697374696e6720696e61637469766500000000000000000000000000000000600082015250565b60006110a5601083610e98565b91506110b08261106f565b602082019050919050565b600060208201905081810360008301526110d481611098565b9050919050565b7f4e487b7100000000000000000000000000000000000000000000000000000000600052601160045260246000fd5b600061111582610bd7565b915061112083610bd7565b925082820261112e81610bd7565b91508282048414831517611145576111446110db565b5b5092915050565b7f496e636f72726563742045544820616d6f756e74000000000000000000000000600082015250565b6000611182601483610e98565b915061118d8261114c565b602082019050919050565b600060208201905081810360008301526111b181611175565b9050919050565b60006040820190506111cd6000830185610d68565b6111da6020830184610d68565b9392505050565b7f496e76616c696420616d6f756e74000000000000000000000000000000000000600082015250565b6000611217600e83610e98565b9150611222826111e1565b602082019050919050565b600060208201905081810360008301526112468161120a565b9050919050565b7f496e76616c696420707269636500000000000000000000000000000000000000600082015250565b6000611283600d83610e98565b915061128e8261124d565b602082019050919050565b600060208201905081810360008301526112b281611276565b9050919050565b60006060820190506112ce6000830186610d92565b6112db6020830185610d92565b6112e86040830184610d68565b949350505050565b60006112fb82610bd7565b91507fffffffffffffffffffffffffffffffffffffffffffffffffffffffffffffffff820361132d5761132c6110db565b5b60018201905091905056fea26469706673582212209ececa2e7349e4e4a2367d039b7a95156b819293c53c1d452e39f2e1eb639d5c64736f6c634300081c0033",
  "linkReferences": {},
  "deployedLinkReferences": {}
}