{
  "_format": "hh-sol-artifact-1",
  "contractName": "EmitterRegistry",
  "sourceName": "contracts/EmitterRegistry.sol",
  "abi": [
    {
      "inputs": [
        {
          "internalType": "address",
          "name": "_token",
          "type": "address"
        }
      ],
      "stateMutability": "nonpayable",
      "type": "constructor"
    },
    {
      "anonymous": false,
      "inputs": [
        {
          "indexed": true,
          "internalType": "address",
          "name": "emitter",
          "type": "address"
        },
        {
          "indexed": false,
          "internalType": "uint256",
          "name": "credits",
          "type": "uint256"
        }
      ],
      "name": "EmissionsOffset",
      "type": "event"
    },
    {
      "anonymous": false,
      "inputs": [
        {
          "indexed": true,
          "internalType": "address",
          "name": "emitter",
          "type": "address"
        },
        {
          "indexed": false,
          "internalType": "uint256",
          "name": "tons",
          "type": "uint256"
        }
      ],
      "name": "EmissionsReported",
      "type": "event"
    },
    {
      "anonymous": false,
      "inputs": [
        {
          "indexed": true,
          "internalType": "address",
          "name": "emitter",
          "type": "address"
        }
      ],
      "name": "EmitterRegistered",
      "type": "event"
    },
    {
      "inputs": [
        {
          "internalType": "address",
          "name": "",
          "type": "address"
        }
      ],
      "name": "emitters",
      "outputs": [
        {
          "internalType": "address",
          "name": "wallet",
          "type": "address"
        },
        {
          "internalType": "uint256",
          "name": "totalEmissions",
          "type": "uint256"
        },
        {
          "internalType": "uint256",
          "name": "totalOffset",
          "type": "uint256"
        }
      ],
      "stateMutability": "view",
      "type": "function"
    },
    {
      "inputs": [
        {
          "internalType": "uint256",
          "name": "credits",
          "type": "uint256"
        }
      ],
      "name": "offsetEmissions",
      "outputs": [],
      "stateMutability": "nonpayable",
      "type": "function"
    },
    {
      "inputs": [],
      "name": "registerEmitter",
      "outputs": [],
      "stateMutability": "nonpayable",
      "type": "function"
    },
    {
      "inputs": [
        {
          "internalType": "uint256",
          "name": "tons",
          "type": "uint256"
        }
      ],
      "name": "reportEmissions",
      "outputs": [],
      "stateMutability": "nonpayable",
      "type": "function"
    },
    {
      "inputs": [],
      "name": "token",
      "outputs": [
        {
          "internalType": "contract GreenCreditToken",
          "name": "",
          "type": "address"
        }
      ],
      "stateMutability": "view",
      "type": "function"
    }
  ],
  "bytecode": "0x608060405234801561001057600080fd5b50604051610cc2380380610cc2833981810160405281019061003291906100db565b806000806101000a81548173ffffffffffffffffffffffffffffffffffffffff021916908373ffffffffffffffffffffffffffffffffffffffff16021790555050610108565b600080fd5b600073ffffffffffffffffffffffffffffffffffffffff82169050919050565b60006100a88261007d565b9050919050565b6100b88161009d565b81146100c357600080fd5b50565b6000815190506100d5816100af565b92915050565b6000602082840312156100f1576100f0610078565b5b60006100ff848285016100c6565b91505092915050565b610bab806101176000396000f3fe608060405234801561001057600080fd5b50600436106100575760003560e01c80635e62211a1461005c57806360c634b214610066578063927c4a2814610082578063f86174661461009e578063fc0c546a146100d0575b600080fd5b6100646100ee565b005b610080600480360381019061007b9190610786565b6102d4565b005b61009c60048036038101906100979190610786565b61051f565b005b6100b860048036038101906100b39190610811565b6106dd565b6040516100c79392919061085c565b60405180910390f35b6100d8610727565b6040516100e591906108f2565b60405180910390f35b600073ffffffffffffffffffffffffffffffffffffffff16600160003373ffffffffffffffffffffffffffffffffffffffff1673ffffffffffffffffffffffffffffffffffffffff16815260200190815260200160002060000160009054906101000a900473ffffffffffffffffffffffffffffffffffffffff1673ffffffffffffffffffffffffffffffffffffffff16146101bf576040517f08c379a00000000000000000000000000000000000000000000000000000000081526004016101b69061096a565b60405180910390fd5b60405180606001604052803373ffffffffffffffffffffffffffffffffffffffff168152602001600081526020016000815250600160003373ffffffffffffffffffffffffffffffffffffffff1673ffffffffffffffffffffffffffffffffffffffff16815260200190815260200160002060008201518160000160006101000a81548173ffffffffffffffffffffffffffffffffffffffff021916908373ffffffffffffffffffffffffffffffffffffffff16021790555060208201518160010155604082015181600201559050503373ffffffffffffffffffffffffffffffffffffffff167fd7ee88b7a7fd1de649151027fb3adf1fae6d236b3e0f30e7cd0ebb53e330257560405160405180910390a2565b600073ffffffffffffffffffffffffffffffffffffffff16600160003373ffffffffffffffffffffffffffffffffffffffff1673ffffffffffffffffffffffffffffffffffffffff16815260200190815260200160002060000160009054906101000a900473ffffffffffffffffffffffffffffffffffffffff1673ffffffffffffffffffffffffffffffffffffffff16036103a5576040517f08c379a000000000000000000000000000000000000000000000000000000000815260040161039c906109d6565b60405180910390fd5b600081116103e8576040517f08c379a00000000000000000000000000000000000000000000000000000000081526004016103df90610a42565b60405180910390fd5b60008054906101000a900473ffffffffffffffffffffffffffffffffffffffff1673ffffffffffffffffffffffffffffffffffffffff16636b24ffd633836040518363ffffffff1660e01b8152600401610443929190610a62565b600060405180830381600087803b15801561045d57600080fd5b505af1158015610471573d6000803e3d6000fd5b5050505080600160003373ffffffffffffffffffffffffffffffffffffffff1673ffffffffffffffffffffffffffffffffffffffff16815260200190815260200160002060020160008282546104c79190610aba565b925050819055503373ffffffffffffffffffffffffffffffffffffffff167f4212311b54c8be8a404a2142f9f5f92510cb364f2de0449a42820eb980b2d7e4826040516105149190610aee565b60405180910390a250565b600073ffffffffffffffffffffffffffffffffffffffff16600160003373ffffffffffffffffffffffffffffffffffffffff1673ffffffffffffffffffffffffffffffffffffffff16815260200190815260200160002060000160009054906101000a900473ffffffffffffffffffffffffffffffffffffffff1673ffffffffffffffffffffffffffffffffffffffff16036105f0576040517f08c379a00000000000000000000000000000000000000000000000000000000081526004016105e7906109d6565b60405180910390fd5b60008111610633576040517f08c379a000000000000000000000000000000000000000000000000000000000815260040161062a90610b55565b60405180910390fd5b80600160003373ffffffffffffffffffffffffffffffffffffffff1673ffffffffffffffffffffffffffffffffffffffff16815260200190815260200160002060010160008282546106859190610aba565b925050819055503373ffffffffffffffffffffffffffffffffffffffff167f55b67d86a30489da0508a12d6c9e8b8d9deeb051244e4b5a4eb965e64e9ce9c5826040516106d29190610aee565b60405180910390a250565b60016020528060005260406000206000915090508060000160009054906101000a900473ffffffffffffffffffffffffffffffffffffffff16908060010154908060020154905083565b60008054906101000a900473ffffffffffffffffffffffffffffffffffffffff1681565b600080fd5b6000819050919050565b61076381610750565b811461076e57600080fd5b50565b6000813590506107808161075a565b92915050565b60006020828403121561079c5761079b61074b565b5b60006107aa84828501610771565b91505092915050565b600073ffffffffffffffffffffffffffffffffffffffff82169050919050565b60006107de826107b3565b9050919050565b6107ee816107d3565b81146107f957600080fd5b50565b60008135905061080b816107e5565b92915050565b6000602082840312156108275761082661074b565b5b6000610835848285016107fc565b91505092915050565b610847816107d3565b82525050565b61085681610750565b82525050565b6000606082019050610871600083018661083e565b61087e602083018561084d565b61088b604083018461084d565b949350505050565b6000819050919050565b60006108b86108b36108ae846107b3565b610893565b6107b3565b9050919050565b60006108ca8261089d565b9050919050565b60006108dc826108bf565b9050919050565b6108ec816108d1565b82525050565b600060208201905061090760008301846108e3565b92915050565b600082825260208201905092915050565b7f416c726561647920726567697374657265640000000000000000000000000000600082015250565b600061095460128361090d565b915061095f8261091e565b602082019050919050565b6000602082019050818103600083015261098381610947565b9050919050565b7f4e6f742072656769737465726564000000000000000000000000000000000000600082015250565b60006109c0600e8361090d565b91506109cb8261098a565b602082019050919050565b600060208201905081810360008301526109ef816109b3565b9050919050565b7f496e76616c696420637265646974730000000000000000000000000000000000600082015250565b6000610a2c600f8361090d565b9150610a37826109f6565b602082019050919050565b60006020820190508181036000830152610a5b81610a1f565b9050919050565b6000604082019050610a77600083018561083e565b610a84602083018461084d565b9392505050565b7f4e487b7100000000000000000000000000000000000000000000000000000000600052601160045260246000fd5b6000610ac582610750565b9150610ad083610750565b9250828201905080821115610ae857610ae7610a8b565b5b92915050565b6000602082019050610b03600083018461084d565b92915050565b7f496e76616c696420616d6f756e74000000000000000000000000000000000000600082015250565b6000610b3f600e8361090d565b9150610b4a82610b09565b602082019050919050565b60006020820190508181036000830152610b6e81610b32565b905091905056fea26469706673582212206cac57851f9f57ca31543722002d5a15ec360a22a8503ff594ca855b4d43c68664736f6c634300081c0033",
  "linkReferences": {},
  "deployedLinkReferences": {}
}