{
  "_format": "hh-sol-artifact-1",
  "contractName": "IndividualEmissionRegistry",
  "sourceName": "contracts/IndividualRegistry.sol",
  "abi": [
    {
      "inputs": [
        {
          "internalType": "address",
          "name": "_token",
          "type": "address"
        }
      ],
      "stateMutability": "nonpayable",
      "type": "constructor"
    },
    {
      "anonymous": false,
      "inputs": [
        {
          "indexed": true,
          "internalType": "address",
          "name": "user",
          "type": "address"
        },
        {
          "indexed": false,
          "internalType": "uint256",
          "name": "emissions",
          "type": "uint256"
        },
        {
          "indexed": false,
          "internalType": "uint256",
          "name": "saved",
          "type": "uint256"
        },
        {
          "indexed": false,
          "internalType": "uint256",
          "name": "creditsIssued",
          "type": "uint256"
        }
      ],
      "name": "BillRecorded",
      "type": "event"
    },
    {
      "anonymous": false,
      "inputs": [
        {
          "indexed": true,
          "internalType": "address",
          "name": "user",
          "type": "address"
        }
      ],
      "name": "IndividualRegistered",
      "type": "event"
    },
    {
      "inputs": [
        {
          "internalType": "address",
          "name": "user",
          "type": "address"
        }
      ],
      "name": "getStats",
      "outputs": [
        {
          "internalType": "uint256",
          "name": "emissions",
          "type": "uint256"
        },
        {
          "internalType": "uint256",
          "name": "saved",
          "type": "uint256"
        },
        {
          "internalType": "uint256",
          "name": "credits",
          "type": "uint256"
        }
      ],
      "stateMutability": "view",
      "type": "function"
    },
    {
      "inputs": [
        {
          "internalType": "address",
          "name": "",
          "type": "address"
        }
      ],
      "name": "individuals",
      "outputs": [
        {
          "internalType": "address",
          "name": "wallet",
          "type": "address"
        },
        {
          "internalType": "uint256",
          "name": "totalEmissions",
          "type": "uint256"
        },
        {
          "internalType": "uint256",
          "name": "totalSaved",
          "type": "uint256"
        },
        {
          "internalType": "uint256",
          "name": "totalCredits",
          "type": "uint256"
        },
        {
          "internalType": "bool",
          "name": "registered",
          "type": "bool"
        }
      ],
      "stateMutability": "view",
      "type": "function"
    },
    {
      "inputs": [
        {
          "internalType": "uint256",
          "name": "credits",
          "type": "uint256"
        }
      ],
      "name": "offset",
      "outputs": [],
      "stateMutability": "nonpayable",
      "type": "function"
    },
    {
      "inputs": [
        {
          "internalType": "uint256",
          "name": "emissions",
          "type": "uint256"
        },
        {
          "internalType": "uint256",
          "name": "savedCO2",
          "type": "uint256"
        }
      ],
      "name": "recordBill",
      "outputs": [],
      "stateMutability": "nonpayable",
      "type": "function"
    },
    {
      "inputs": [],
      "name": "register",
      "outputs": [],
      "stateMutability": "nonpayable",
      "type": "function"
    },
    {
      "inputs": [],
      "name": "token",
      "outputs": [
        {
          "internalType": "contract GreenCreditToken",
          "name": "",
          "type": "address"
        }
      ],
      "stateMutability": "view",
      "type": "function"
    }
  ],
  "bytecode": "0x608060405234801561001057600080fd5b50604051610f51380380610f51833981810160405281019061003291906100db565b806000806101000a81548173ffffffffffffffffffffffffffffffffffffffff021916908373ffffffffffffffffffffffffffffffffffffffff16021790555050610108565b600080fd5b600073ffffffffffffffffffffffffffffffffffffffff82169050919050565b60006100a88261007d565b9050919050565b6100b88161009d565b81146100c357600080fd5b50565b6000815190506100d5816100af565b92915050565b6000602082840312156100f1576100f0610078565b5b60006100ff848285016100c6565b91505092915050565b610e3a806101176000396000f3fe608060405234801561001057600080fd5b50600436106100625760003560e01c80631aa3a0081461006757806392003cec14610071578063944a2cc01461008d5780639f43aea4146100c1578063c23f85d6146100dd578063fc0c546a1461010f575b600080fd5b61006f61012d565b005b61008b600480360381019061008691906108ee565b61030c565b005b6100a760048036038101906100a29190610979565b6104c7565b6040516100b89594939291906109df565b60405180910390f35b6100db60048036038101906100d69190610a32565b61052a565b005b6100f760048036038101906100f29190610979565b610791565b60405161010693929190610a72565b60405180910390f35b61011761088f565b6040516101249190610b08565b60405180910390f35b600160003373ffffffffffffffffffffffffffffffffffffffff1673ffffffffffffffffffffffffffffffffffffffff16815260200190815260200160002060040160009054906101000a900460ff16156101bd576040517f08c379a00000000000000000000000000000000000000000000000000000000081526004016101b490610b80565b60405180910390fd5b6040518060a001604052803373ffffffffffffffffffffffffffffffffffffffff16815260200160008152602001600081526020016000815260200160011515815250600160003373ffffffffffffffffffffffffffffffffffffffff1673ffffffffffffffffffffffffffffffffffffffff16815260200190815260200160002060008201518160000160006101000a81548173ffffffffffffffffffffffffffffffffffffffff021916908373ffffffffffffffffffffffffffffffffffffffff16021790555060208201518160010155604082015181600201556060820151816003015560808201518160040160006101000a81548160ff0219169083151502179055509050503373ffffffffffffffffffffffffffffffffffffffff167f63383eca943047b2af41218b68c30b9dc5ac3d7ef78e6ec508b75b62344ccb5060405160405180910390a2565b600160003373ffffffffffffffffffffffffffffffffffffffff1673ffffffffffffffffffffffffffffffffffffffff16815260200190815260200160002060040160009054906101000a900460ff1661039b576040517f08c379a000000000000000000000000000000000000000000000000000000000815260040161039290610bec565b60405180910390fd5b600081116103de576040517f08c379a00000000000000000000000000000000000000000000000000000000081526004016103d590610c58565b60405180910390fd5b60008054906101000a900473ffffffffffffffffffffffffffffffffffffffff1673ffffffffffffffffffffffffffffffffffffffff16636b24ffd633836040518363ffffffff1660e01b8152600401610439929190610c78565b600060405180830381600087803b15801561045357600080fd5b505af1158015610467573d6000803e3d6000fd5b5050505080600160003373ffffffffffffffffffffffffffffffffffffffff1673ffffffffffffffffffffffffffffffffffffffff16815260200190815260200160002060030160008282546104bd9190610cd0565b9250508190555050565b60016020528060005260406000206000915090508060000160009054906101000a900473ffffffffffffffffffffffffffffffffffffffff16908060010154908060020154908060030154908060040160009054906101000a900460ff16905085565b600160003373ffffffffffffffffffffffffffffffffffffffff1673ffffffffffffffffffffffffffffffffffffffff16815260200190815260200160002060040160009054906101000a900460ff166105b9576040517f08c379a00000000000000000000000000000000000000000000000000000000081526004016105b090610bec565b60405180910390fd5b60008210156105fd576040517f08c379a00000000000000000000000000000000000000000000000000000000081526004016105f490610d50565b60405180910390fd5b6000600160003373ffffffffffffffffffffffffffffffffffffffff1673ffffffffffffffffffffffffffffffffffffffff1681526020019081526020016000209050828160010160008282546106549190610d70565b925050819055508181600201600082825461066f9190610d70565b925050819055506000600a836106859190610dd3565b905060008111156107395760008054906101000a900473ffffffffffffffffffffffffffffffffffffffff1673ffffffffffffffffffffffffffffffffffffffff166340c10f1933836040518363ffffffff1660e01b81526004016106eb929190610c78565b600060405180830381600087803b15801561070557600080fd5b505af1158015610719573d6000803e3d6000fd5b50505050808260030160008282546107319190610d70565b925050819055505b3373ffffffffffffffffffffffffffffffffffffffff167f11495d6f4790898ca67c9392bd561a9fdfe96da0fd6e1438b372e8fb6275a93d85858460405161078393929190610a72565b60405180910390a250505050565b600080600080600160008673ffffffffffffffffffffffffffffffffffffffff1673ffffffffffffffffffffffffffffffffffffffff1681526020019081526020016000206040518060a00160405290816000820160009054906101000a900473ffffffffffffffffffffffffffffffffffffffff1673ffffffffffffffffffffffffffffffffffffffff1673ffffffffffffffffffffffffffffffffffffffff1681526020016001820154815260200160028201548152602001600382015481526020016004820160009054906101000a900460ff1615151515815250509050806020015181604001518260600151935093509350509193909250565b60008054906101000a900473ffffffffffffffffffffffffffffffffffffffff1681565b600080fd5b6000819050919050565b6108cb816108b8565b81146108d657600080fd5b50565b6000813590506108e8816108c2565b92915050565b600060208284031215610904576109036108b3565b5b6000610912848285016108d9565b91505092915050565b600073ffffffffffffffffffffffffffffffffffffffff82169050919050565b60006109468261091b565b9050919050565b6109568161093b565b811461096157600080fd5b50565b6000813590506109738161094d565b92915050565b60006020828403121561098f5761098e6108b3565b5b600061099d84828501610964565b91505092915050565b6109af8161093b565b82525050565b6109be816108b8565b82525050565b60008115159050919050565b6109d9816109c4565b82525050565b600060a0820190506109f460008301886109a6565b610a0160208301876109b5565b610a0e60408301866109b5565b610a1b60608301856109b5565b610a2860808301846109d0565b9695505050505050565b60008060408385031215610a4957610a486108b3565b5b6000610a57858286016108d9565b9250506020610a68858286016108d9565b9150509250929050565b6000606082019050610a8760008301866109b5565b610a9460208301856109b5565b610aa160408301846109b5565b949350505050565b6000819050919050565b6000610ace610ac9610ac48461091b565b610aa9565b61091b565b9050919050565b6000610ae082610ab3565b9050919050565b6000610af282610ad5565b9050919050565b610b0281610ae7565b82525050565b6000602082019050610b1d6000830184610af9565b92915050565b600082825260208201905092915050565b7f416c726561647920726567697374657265640000000000000000000000000000600082015250565b6000610b6a601283610b23565b9150610b7582610b34565b602082019050919050565b60006020820190508181036000830152610b9981610b5d565b9050919050565b7f4e6f742072656769737465726564000000000000000000000000000000000000600082015250565b6000610bd6600e83610b23565b9150610be182610ba0565b602082019050919050565b60006020820190508181036000830152610c0581610bc9565b9050919050565b7f496e76616c696420637265646974730000000000000000000000000000000000600082015250565b6000610c42600f83610b23565b9150610c4d82610c0c565b602082019050919050565b60006020820190508181036000830152610c7181610c35565b9050919050565b6000604082019050610c8d60008301856109a6565b610c9a60208301846109b5565b9392505050565b7f4e487b7100000000000000000000000000000000000000000000000000000000600052601160045260246000fd5b6000610cdb826108b8565b9150610ce6836108b8565b9250828203905081811115610cfe57610cfd610ca1565b5b92915050565b7f496e76616c696420656d697373696f6e73000000000000000000000000000000600082015250565b6000610d3a601183610b23565b9150610d4582610d04565b602082019050919050565b60006020820190508181036000830152610d6981610d2d565b9050919050565b6000610d7b826108b8565b9150610d86836108b8565b9250828201905080821115610d9e57610d9d610ca1565b5b92915050565b7f4e487b7100000000000000000000000000000000000000000000000000000000600052601260045260246000fd5b6000610dde826108b8565b9150610de9836108b8565b925082610df957610df8610da4565b5b82820490509291505056fea264697066735822122022a8503ef4756f77296b5a8a6595e7f110b8e9cd28805dc830d8f9810b39478264736f6c634300081c0033",
  "linkReferences": {},
  "deployedLinkReferences": {}
}