{
  "_format": "hh-sol-artifact-1",
  "contractName": "OffsetProjectRegistry",
  "sourceName": "contracts/OffsetProjectRegistry.sol",
  "abi": [
    {
      "inputs": [
        {
          "internalType": "address",
          "name": "_token",
          "type": "address"
        }
      ],
      "stateMutability": "nonpayable",
      "type": "constructor"
    },
    {
      "anonymous": false,
      "inputs": [
        {
          "indexed": true,
          "internalType": "uint256",
          "name": "projectId",
          "type": "uint256"
        },
        {
          "indexed": true,
          "internalType": "address",
          "name": "owner",
          "type": "address"
        },
        {
          "indexed": false,
          "internalType": "uint256",
          "name": "amount",
          "type": "uint256"
        }
      ],
      "name": "CreditsIssued",
      "type": "event"
    },
    {
      "anonymous": false,
      "inputs": [
        {
          "indexed": true,
          "internalType": "uint256",
          "name": "projectId",
          "type": "uint256"
        },
        {
          "indexed": true,
          "internalType": "address",
          "name": "owner",
          "type": "address"
        },
        {
          "indexed": false,
          "internalType": "string",
          "name": "cid",
          "type": "string"
        }
      ],
      "name": "ProjectRegistered",
      "type": "event"
    },
    {
      "anonymous": false,
      "inputs": [
        {
          "indexed": true,
          "internalType": "uint256",
          "name": "projectId",
          "type": "uint256"
        }
      ],
      "name": "ProjectRevoked",
      "type": "event"
    },
    {
      "anonymous": false,
      "inputs": [
        {
          "indexed": true,
          "internalType": "uint256",
          "name": "projectId",
          "type": "uint256"
        }
      ],
      "name": "ProjectVerified",
      "type": "event"
    },
    {
      "inputs": [],
      "name": "admin",
      "outputs": [
        {
          "internalType": "address",
          "name": "",
          "type": "address"
        }
      ],
      "stateMutability": "view",
      "type": "function"
    },
    {
      "inputs": [
        {
          "internalType": "uint256",
          "name": "projectId",
          "type": "uint256"
        },
        {
          "internalType": "uint256",
          "name": "amount",
          "type": "uint256"
        }
      ],
      "name": "mintCredits",
      "outputs": [],
      "stateMutability": "nonpayable",
      "type": "function"
    },
    {
      "inputs": [],
      "name": "nextProjectId",
      "outputs": [
        {
          "internalType": "uint256",
          "name": "",
          "type": "uint256"
        }
      ],
      "stateMutability": "view",
      "type": "function"
    },
    {
      "inputs": [
        {
          "internalType": "uint256",
          "name": "",
          "type": "uint256"
        }
      ],
      "name": "projects",
      "outputs": [
        {
          "internalType": "uint256",
          "name": "id",
          "type": "uint256"
        },
        {
          "internalType": "address",
          "name": "owner",
          "type": "address"
        },
        {
          "internalType": "string",
          "name": "name",
          "type": "string"
        },
        {
          "internalType": "string",
          "name": "projectType",
          "type": "string"
        },
        {
          "internalType": "string",
          "name": "cid",
          "type": "string"
        },
        {
          "internalType": "bool",
          "name": "verified",
          "type": "bool"
        },
        {
          "internalType": "bool",
          "name": "revoked",
          "type": "bool"
        }
      ],
      "stateMutability": "view",
      "type": "function"
    },
    {
      "inputs": [
        {
          "internalType": "string",
          "name": "name",
          "type": "string"
        },
        {
          "internalType": "string",
          "name": "projectType",
          "type": "string"
        },
        {
          "internalType": "string",
          "name": "cid",
          "type": "string"
        }
      ],
      "name": "registerProject",
      "outputs": [],
      "stateMutability": "nonpayable",
      "type": "function"
    },
    {
      "inputs": [
        {
          "internalType": "uint256",
          "name": "projectId",
          "type": "uint256"
        }
      ],
      "name": "revokeProject",
      "outputs": [],
      "stateMutability": "nonpayable",
      "type": "function"
    },
    {
      "inputs": [],
      "name": "token",
      "outputs": [
        {
          "internalType": "contract GreenCreditToken",
          "name": "",
          "type": "address"
        }
      ],
      "stateMutability": "view",
      "type": "function"
    },
    {
      "inputs": [
        {
          "internalType": "uint256",
          "name": "projectId",
          "type": "uint256"
        }
      ],
      "name": "verifyProject",
      "outputs": [],
      "stateMutability": "nonpayable",
      "type": "function"
    }
  ],
  "bytecode": "0x608060405234801561001057600080fd5b5060405161197e38038061197e8339818101604052810190610032919061011c565b336000806101000a81548173ffffffffffffffffffffffffffffffffffffffff021916908373ffffffffffffffffffffffffffffffffffffffff16021790555080600160006101000a81548173ffffffffffffffffffffffffffffffffffffffff021916908373ffffffffffffffffffffffffffffffffffffffff16021790555050610149565b600080fd5b600073ffffffffffffffffffffffffffffffffffffffff82169050919050565b60006100e9826100be565b9050919050565b6100f9816100de565b811461010457600080fd5b50565b600081519050610116816100f0565b92915050565b600060208284031215610132576101316100b9565b5b600061014084828501610107565b91505092915050565b611826806101586000396000f3fe608060405234801561001057600080fd5b50600436106100885760003560e01c8063ec41aa171161005b578063ec41aa1714610119578063ed1ca91a14610135578063f851a44014610151578063fc0c546a1461016f57610088565b8063107046bd1461008d578063135362d2146100c3578063df9a6c2f146100df578063e935b7b1146100fb575b600080fd5b6100a760048036038101906100a29190610e32565b61018d565b6040516100ba9796959493929190610f5a565b60405180910390f35b6100dd60048036038101906100d89190610e32565b6103a1565b005b6100f960048036038101906100f49190611113565b610535565b005b6101036106e1565b60405161011091906111ba565b60405180910390f35b610133600480360381019061012e91906111d5565b6106e7565b005b61014f600480360381019061014a9190610e32565b610c0a565b005b610159610d9e565b6040516101669190611215565b60405180910390f35b610177610dc2565b604051610184919061128f565b60405180910390f35b60036020528060005260406000206000915090508060000154908060010160009054906101000a900473ffffffffffffffffffffffffffffffffffffffff16908060020180546101dc906112d9565b80601f0160208091040260200160405190810160405280929190818152602001828054610208906112d9565b80156102555780601f1061022a57610100808354040283529160200191610255565b820191906000526020600020905b81548152906001019060200180831161023857829003601f168201915b50505050509080600301805461026a906112d9565b80601f0160208091040260200160405190810160405280929190818152602001828054610296906112d9565b80156102e35780601f106102b8576101008083540402835291602001916102e3565b820191906000526020600020905b8154815290600101906020018083116102c657829003601f168201915b5050505050908060040180546102f8906112d9565b80601f0160208091040260200160405190810160405280929190818152602001828054610324906112d9565b80156103715780601f1061034657610100808354040283529160200191610371565b820191906000526020600020905b81548152906001019060200180831161035457829003601f168201915b5050505050908060050160009054906101000a900460ff16908060050160019054906101000a900460ff16905087565b80600073ffffffffffffffffffffffffffffffffffffffff166003600083815260200190815260200160002060010160009054906101000a900473ffffffffffffffffffffffffffffffffffffffff1673ffffffffffffffffffffffffffffffffffffffff1603610447576040517f08c379a000000000000000000000000000000000000000000000000000000000815260040161043e90611356565b60405180910390fd5b60008054906101000a900473ffffffffffffffffffffffffffffffffffffffff1673ffffffffffffffffffffffffffffffffffffffff163373ffffffffffffffffffffffffffffffffffffffff16146104d5576040517f08c379a00000000000000000000000000000000000000000000000000000000081526004016104cc906113c2565b60405180910390fd5b60016003600084815260200190815260200160002060050160016101000a81548160ff021916908315150217905550817f8c847a643558bcd6e8a04a6eaa17c12754a3a12f9240f7072ef38598f07c387560405160405180910390a25050565b600060025490506040518060e001604052808281526020013373ffffffffffffffffffffffffffffffffffffffff16815260200185815260200184815260200183815260200160001515815260200160001515815250600360008381526020019081526020016000206000820151816000015560208201518160010160006101000a81548173ffffffffffffffffffffffffffffffffffffffff021916908373ffffffffffffffffffffffffffffffffffffffff16021790555060408201518160020190816106049190611584565b50606082015181600301908161061a9190611584565b5060808201518160040190816106309190611584565b5060a08201518160050160006101000a81548160ff02191690831515021790555060c08201518160050160016101000a81548160ff0219169083151502179055509050506002600081548092919061068790611685565b91905055503373ffffffffffffffffffffffffffffffffffffffff16817f1fb4423aed62bba3e66f7c81a4af273642c7e8c57d7b111ae2b1aca9887869ba846040516106d391906116cd565b60405180910390a350505050565b60025481565b81600073ffffffffffffffffffffffffffffffffffffffff166003600083815260200190815260200160002060010160009054906101000a900473ffffffffffffffffffffffffffffffffffffffff1673ffffffffffffffffffffffffffffffffffffffff160361078d576040517f08c379a000000000000000000000000000000000000000000000000000000000815260040161078490611356565b60405180910390fd5b60008054906101000a900473ffffffffffffffffffffffffffffffffffffffff1673ffffffffffffffffffffffffffffffffffffffff163373ffffffffffffffffffffffffffffffffffffffff161461081b576040517f08c379a0000000000000000000000000000000000000000000000000000000008152600401610812906113c2565b60405180910390fd5b6000600360008581526020019081526020016000206040518060e0016040529081600082015481526020016001820160009054906101000a900473ffffffffffffffffffffffffffffffffffffffff1673ffffffffffffffffffffffffffffffffffffffff1673ffffffffffffffffffffffffffffffffffffffff1681526020016002820180546108ab906112d9565b80601f01602080910402602001604051908101604052809291908181526020018280546108d7906112d9565b80156109245780601f106108f957610100808354040283529160200191610924565b820191906000526020600020905b81548152906001019060200180831161090757829003601f168201915b5050505050815260200160038201805461093d906112d9565b80601f0160208091040260200160405190810160405280929190818152602001828054610969906112d9565b80156109b65780601f1061098b576101008083540402835291602001916109b6565b820191906000526020600020905b81548152906001019060200180831161099957829003601f168201915b505050505081526020016004820180546109cf906112d9565b80601f01602080910402602001604051908101604052809291908181526020018280546109fb906112d9565b8015610a485780601f10610a1d57610100808354040283529160200191610a48565b820191906000526020600020905b815481529060010190602001808311610a2b57829003601f168201915b505050505081526020016005820160009054906101000a900460ff161515151581526020016005820160019054906101000a900460ff16151515158152505090508060a001518015610a9c57508060c00151155b610adb576040517f08c379a0000000000000000000000000000000000000000000000000000000008152600401610ad29061173b565b60405180910390fd5b60008311610b1e576040517f08c379a0000000000000000000000000000000000000000000000000000000008152600401610b15906117a7565b60405180910390fd5b600160009054906101000a900473ffffffffffffffffffffffffffffffffffffffff1673ffffffffffffffffffffffffffffffffffffffff166340c10f198260200151856040518363ffffffff1660e01b8152600401610b7f9291906117c7565b600060405180830381600087803b158015610b9957600080fd5b505af1158015610bad573d6000803e3d6000fd5b50505050806020015173ffffffffffffffffffffffffffffffffffffffff16847f80807df250fc60b0a27122f9dca640191a9a0347c492a6bea34b4570e50f2f0285604051610bfc91906111ba565b60405180910390a350505050565b80600073ffffffffffffffffffffffffffffffffffffffff166003600083815260200190815260200160002060010160009054906101000a900473ffffffffffffffffffffffffffffffffffffffff1673ffffffffffffffffffffffffffffffffffffffff1603610cb0576040517f08c379a0000000000000000000000000000000000000000000000000000000008152600401610ca790611356565b60405180910390fd5b60008054906101000a900473ffffffffffffffffffffffffffffffffffffffff1673ffffffffffffffffffffffffffffffffffffffff163373ffffffffffffffffffffffffffffffffffffffff1614610d3e576040517f08c379a0000000000000000000000000000000000000000000000000000000008152600401610d35906113c2565b60405180910390fd5b60016003600084815260200190815260200160002060050160006101000a81548160ff021916908315150217905550817f2fe72be8f4566f35545876185d6cc546d49e5b96e94813ba058f82a4d4b8162360405160405180910390a25050565b60008054906101000a900473ffffffffffffffffffffffffffffffffffffffff1681565b600160009054906101000a900473ffffffffffffffffffffffffffffffffffffffff1681565b6000604051905090565b600080fd5b600080fd5b6000819050919050565b610e0f81610dfc565b8114610e1a57600080fd5b50565b600081359050610e2c81610e06565b92915050565b600060208284031215610e4857610e47610df2565b5b6000610e5684828501610e1d565b91505092915050565b610e6881610dfc565b82525050565b600073ffffffffffffffffffffffffffffffffffffffff82169050919050565b6000610e9982610e6e565b9050919050565b610ea981610e8e565b82525050565b600081519050919050565b600082825260208201905092915050565b60005b83811015610ee9578082015181840152602081019050610ece565b60008484015250505050565b6000601f19601f8301169050919050565b6000610f1182610eaf565b610f1b8185610eba565b9350610f2b818560208601610ecb565b610f3481610ef5565b840191505092915050565b60008115159050919050565b610f5481610f3f565b82525050565b600060e082019050610f6f600083018a610e5f565b610f7c6020830189610ea0565b8181036040830152610f8e8188610f06565b90508181036060830152610fa28187610f06565b90508181036080830152610fb68186610f06565b9050610fc560a0830185610f4b565b610fd260c0830184610f4b565b98975050505050505050565b600080fd5b600080fd5b7f4e487b7100000000000000000000000000000000000000000000000000000000600052604160045260246000fd5b61102082610ef5565b810181811067ffffffffffffffff8211171561103f5761103e610fe8565b5b80604052505050565b6000611052610de8565b905061105e8282611017565b919050565b600067ffffffffffffffff82111561107e5761107d610fe8565b5b61108782610ef5565b9050602081019050919050565b82818337600083830152505050565b60006110b66110b184611063565b611048565b9050828152602081018484840111156110d2576110d1610fe3565b5b6110dd848285611094565b509392505050565b600082601f8301126110fa576110f9610fde565b5b813561110a8482602086016110a3565b91505092915050565b60008060006060848603121561112c5761112b610df2565b5b600084013567ffffffffffffffff81111561114a57611149610df7565b5b611156868287016110e5565b935050602084013567ffffffffffffffff81111561117757611176610df7565b5b611183868287016110e5565b925050604084013567ffffffffffffffff8111156111a4576111a3610df7565b5b6111b0868287016110e5565b9150509250925092565b60006020820190506111cf6000830184610e5f565b92915050565b600080604083850312156111ec576111eb610df2565b5b60006111fa85828601610e1d565b925050602061120b85828601610e1d565b9150509250929050565b600060208201905061122a6000830184610ea0565b92915050565b6000819050919050565b600061125561125061124b84610e6e565b611230565b610e6e565b9050919050565b60006112678261123a565b9050919050565b60006112798261125c565b9050919050565b6112898161126e565b82525050565b60006020820190506112a46000830184611280565b92915050565b7f4e487b7100000000000000000000000000000000000000000000000000000000600052602260045260246000fd5b600060028204905060018216806112f157607f821691505b602082108103611304576113036112aa565b5b50919050565b7f50726f6a65637420646f6573206e6f7420657869737400000000000000000000600082015250565b6000611340601683610eba565b915061134b8261130a565b602082019050919050565b6000602082019050818103600083015261136f81611333565b9050919050565b7f4f6e6c792061646d696e00000000000000000000000000000000000000000000600082015250565b60006113ac600a83610eba565b91506113b782611376565b602082019050919050565b600060208201905081810360008301526113db8161139f565b9050919050565b60008190508160005260206000209050919050565b60006020601f8301049050919050565b600082821b905092915050565b6000600883026114447fffffffffffffffffffffffffffffffffffffffffffffffffffffffffffffffff82611407565b61144e8683611407565b95508019841693508086168417925050509392505050565b600061148161147c61147784610dfc565b611230565b610dfc565b9050919050565b6000819050919050565b61149b83611466565b6114af6114a782611488565b848454611414565b825550505050565b600090565b6114c46114b7565b6114cf818484611492565b505050565b5b818110156114f3576114e86000826114bc565b6001810190506114d5565b5050565b601f82111561153857611509816113e2565b611512846113f7565b81016020851015611521578190505b61153561152d856113f7565b8301826114d4565b50505b505050565b600082821c905092915050565b600061155b6000198460080261153d565b1980831691505092915050565b6000611574838361154a565b9150826002028217905092915050565b61158d82610eaf565b67ffffffffffffffff8111156115a6576115a5610fe8565b5b6115b082546112d9565b6115bb8282856114f7565b600060209050601f8311600181146115ee57600084156115dc578287015190505b6115e68582611568565b86555061164e565b601f1984166115fc866113e2565b60005b82811015611624578489015182556001820191506020850194506020810190506115ff565b86831015611641578489015161163d601f89168261154a565b8355505b6001600288020188555050505b505050505050565b7f4e487b7100000000000000000000000000000000000000000000000000000000600052601160045260246000fd5b600061169082610dfc565b91507fffffffffffffffffffffffffffffffffffffffffffffffffffffffffffffffff82036116c2576116c1611656565b5b600182019050919050565b600060208201905081810360008301526116e78184610f06565b905092915050565b7f496e76616c69642070726f6a6563740000000000000000000000000000000000600082015250565b6000611725600f83610eba565b9150611730826116ef565b602082019050919050565b6000602082019050818103600083015261175481611718565b9050919050565b7f496e76616c696420616d6f756e74000000000000000000000000000000000000600082015250565b6000611791600e83610eba565b915061179c8261175b565b602082019050919050565b600060208201905081810360008301526117c081611784565b9050919050565b60006040820190506117dc6000830185610ea0565b6117e96020830184610e5f565b939250505056fea26469706673582212209d668b3f14d8b53fc90a2258629f2702dd831f0da50835994979144704c1367064736f6c634300081c0033",
  "linkReferences": {},
  "deployedLinkReferences": {}
}