{
  "_format": "hh-sol-artifact-1",
  "contractName": "GreenCredits",
  "sourceName": "contracts/CarbonCredit.sol",
  "abi": [
    {
      "inputs": [],
      "stateMutability": "nonpayable",
      "type": "constructor"
    },
    {
      "inputs": [],
      "name": "admin",
      "outputs": [
        {
          "internalType": "address",
          "name": "",
          "type": "address"
        }
      ],
      "stateMutability": "view",
      "type": "function"
    },
    {
      "inputs": [
        {
          "internalType": "address",
          "name": "_addr",
          "type": "address"
        }
      ],
      "name": "balanceOf",
      "outputs": [
        {
          "internalType": "uint256",
          "name": "",
          "type": "uint256"
        }
      ],
      "stateMutability": "view",
      "type": "function"
    },
    {
      "inputs": [
        {
          "internalType": "address",
          "name": "",
          "type": "address"
        }
      ],
      "name": "balances",
      "outputs": [
        {
          "internalType": "uint256",
          "name": "",
          "type": "uint256"
        }
      ],
      "stateMutability": "view",
      "type": "function"
    },
    {
      "inputs": [
        {
          "internalType": "uint256",
          "name": "",
          "type": "uint256"
        }
      ],
      "name": "emitters",
      "outputs": [
        {
          "internalType": "uint256",
          "name": "id",
          "type": "uint256"
        },
        {
          "internalType": "string",
          "name": "name",
          "type": "string"
        },
        {
          "internalType": "string",
          "name": "industryType",
          "type": "string"
        },
        {
          "internalType": "address",
          "name": "emitterAddress",
          "type": "address"
        },
        {
          "internalType": "uint256",
          "name": "totalEmissions",
          "type": "uint256"
        },
        {
          "internalType": "uint256",
          "name": "totalOffset",
          "type": "uint256"
        }
      ],
      "stateMutability": "view",
      "type": "function"
    },
    {
      "inputs": [
        {
          "internalType": "uint256",
          "name": "_projectId",
          "type": "uint256"
        },
        {
          "internalType": "uint256",
          "name": "_amount",
          "type": "uint256"
        }
      ],
      "name": "mintCreditsToProject",
      "outputs": [],
      "stateMutability": "nonpayable",
      "type": "function"
    },
    {
      "inputs": [],
      "name": "nextEmitterId",
      "outputs": [
        {
          "internalType": "uint256",
          "name": "",
          "type": "uint256"
        }
      ],
      "stateMutability": "view",
      "type": "function"
    },
    {
      "inputs": [],
      "name": "nextProjectId",
      "outputs": [
        {
          "internalType": "uint256",
          "name": "",
          "type": "uint256"
        }
      ],
      "stateMutability": "view",
      "type": "function"
    },
    {
      "inputs": [
        {
          "internalType": "uint256",
          "name": "_emitterId",
          "type": "uint256"
        },
        {
          "internalType": "uint256",
          "name": "_amount",
          "type": "uint256"
        }
      ],
      "name": "offsetEmissions",
      "outputs": [],
      "stateMutability": "nonpayable",
      "type": "function"
    },
    {
      "inputs": [
        {
          "internalType": "uint256",
          "name": "",
          "type": "uint256"
        }
      ],
      "name": "offsetProjects",
      "outputs": [
        {
          "internalType": "uint256",
          "name": "id",
          "type": "uint256"
        },
        {
          "internalType": "string",
          "name": "name",
          "type": "string"
        },
        {
          "internalType": "string",
          "name": "projectType",
          "type": "string"
        },
        {
          "internalType": "string",
          "name": "location",
          "type": "string"
        },
        {
          "internalType": "string",
          "name": "cid",
          "type": "string"
        },
        {
          "internalType": "address",
          "name": "owner",
          "type": "address"
        },
        {
          "internalType": "uint256",
          "name": "timestamp",
          "type": "uint256"
        },
        {
          "internalType": "bool",
          "name": "verified",
          "type": "bool"
        },
        {
          "internalType": "uint256",
          "name": "credits",
          "type": "uint256"
        }
      ],
      "stateMutability": "view",
      "type": "function"
    },
    {
      "inputs": [
        {
          "internalType": "string",
          "name": "_name",
          "type": "string"
        },
        {
          "internalType": "string",
          "name": "_industryType",
          "type": "string"
        }
      ],
      "name": "registerEmitter",
      "outputs": [],
      "stateMutability": "nonpayable",
      "type": "function"
    },
    {
      "inputs": [
        {
          "internalType": "string",
          "name": "_name",
          "type": "string"
        },
        {
          "internalType": "string",
          "name": "_type",
          "type": "string"
        },
        {
          "internalType": "string",
          "name": "_location",
          "type": "string"
        },
        {
          "internalType": "string",
          "name": "_cid",
          "type": "string"
        }
      ],
      "name": "registerOffsetProject",
      "outputs": [],
      "stateMutability": "nonpayable",
      "type": "function"
    },
    {
      "inputs": [
        {
          "internalType": "uint256",
          "name": "_emitterId",
          "type": "uint256"
        },
        {
          "internalType": "uint256",
          "name": "_tons",
          "type": "uint256"
        }
      ],
      "name": "reportEmissions",
      "outputs": [],
      "stateMutability": "nonpayable",
      "type": "function"
    },
    {
      "inputs": [
        {
          "internalType": "uint256",
          "name": "_projectId",
          "type": "uint256"
        }
      ],
      "name": "verifyProject",
      "outputs": [],
      "stateMutability": "nonpayable",
      "type": "function"
    }
  ],
  "bytecode": "0x6080604052600180556001600255348015601857600080fd5b50336000806101000a81548173ffffffffffffffffffffffffffffffffffffffff021916908373ffffffffffffffffffffffffffffffffffffffff160217905550611a5d806100686000396000f3fe608060405234801561001057600080fd5b50600436106100cf5760003560e01c806385242e541161008c578063d8d31fc111610066578063d8d31fc11461022f578063e935b7b11461024b578063ed1ca91a14610269578063f851a44014610285576100cf565b806385242e54146101bf578063bb98e40d146101f7578063c2a0e6cc14610213576100cf565b806327e235e3146100d4578063358e11ab146101045780633ce7a162146101205780635a0911c41461013e57806370a08231146101735780637a4ee091146101a3575b600080fd5b6100ee60048036038101906100e99190610ee3565b6102a3565b6040516100fb9190610f29565b60405180910390f35b61011e60048036038101906101199190610f70565b6102bb565b005b610128610384565b6040516101359190610f29565b60405180910390f35b61015860048036038101906101539190610fb0565b61038a565b60405161016a9695949392919061107c565b60405180910390f35b61018d60048036038101906101889190610ee3565b6104f6565b60405161019a9190610f29565b60405180910390f35b6101bd60048036038101906101b89190611220565b61053f565b005b6101d960048036038101906101d49190610fb0565b6106af565b6040516101ee99989796959493929190611312565b60405180910390f35b610211600480360381019061020c9190610f70565b61094a565b005b61022d600480360381019061022891906113bb565b610ada565b005b61024960048036038101906102449190610f70565b610be6565b005b610253610d87565b6040516102609190610f29565b60405180910390f35b610283600480360381019061027e9190610fb0565b610d8d565b005b61028d610e4d565b60405161029a9190611433565b60405180910390f35b60056020528060005260406000206000915090505481565b60006004600084815260200190815260200160002090508060030160009054906101000a900473ffffffffffffffffffffffffffffffffffffffff1673ffffffffffffffffffffffffffffffffffffffff163373ffffffffffffffffffffffffffffffffffffffff1614610364576040517f08c379a000000000000000000000000000000000000000000000000000000000815260040161035b9061149a565b60405180910390fd5b8181600401600082825461037891906114e9565b92505081905550505050565b60025481565b60046020528060005260406000206000915090508060000154908060010180546103b39061154c565b80601f01602080910402602001604051908101604052809291908181526020018280546103df9061154c565b801561042c5780601f106104015761010080835404028352916020019161042c565b820191906000526020600020905b81548152906001019060200180831161040f57829003601f168201915b5050505050908060020180546104419061154c565b80601f016020809104026020016040519081016040528092919081815260200182805461046d9061154c565b80156104ba5780601f1061048f576101008083540402835291602001916104ba565b820191906000526020600020905b81548152906001019060200180831161049d57829003601f168201915b5050505050908060030160009054906101000a900473ffffffffffffffffffffffffffffffffffffffff16908060040154908060050154905086565b6000600560008373ffffffffffffffffffffffffffffffffffffffff1673ffffffffffffffffffffffffffffffffffffffff168152602001908152602001600020549050919050565b60405180610120016040528060015481526020018581526020018481526020018381526020018281526020013373ffffffffffffffffffffffffffffffffffffffff16815260200142815260200160001515815260200160008152506003600060015481526020019081526020016000206000820151816000015560208201518160010190816105cf9190611729565b5060408201518160020190816105e59190611729565b5060608201518160030190816105fb9190611729565b5060808201518160040190816106119190611729565b5060a08201518160050160006101000a81548173ffffffffffffffffffffffffffffffffffffffff021916908373ffffffffffffffffffffffffffffffffffffffff16021790555060c0820151816006015560e08201518160070160006101000a81548160ff0219169083151502179055506101008201518160080155905050600160008154809291906106a4906117fb565b919050555050505050565b60036020528060005260406000206000915090508060000154908060010180546106d89061154c565b80601f01602080910402602001604051908101604052809291908181526020018280546107049061154c565b80156107515780601f1061072657610100808354040283529160200191610751565b820191906000526020600020905b81548152906001019060200180831161073457829003601f168201915b5050505050908060020180546107669061154c565b80601f01602080910402602001604051908101604052809291908181526020018280546107929061154c565b80156107df5780601f106107b4576101008083540402835291602001916107df565b820191906000526020600020905b8154815290600101906020018083116107c257829003601f168201915b5050505050908060030180546107f49061154c565b80601f01602080910402602001604051908101604052809291908181526020018280546108209061154c565b801561086d5780601f106108425761010080835404028352916020019161086d565b820191906000526020600020905b81548152906001019060200180831161085057829003601f168201915b5050505050908060040180546108829061154c565b80601f01602080910402602001604051908101604052809291908181526020018280546108ae9061154c565b80156108fb5780601f106108d0576101008083540402835291602001916108fb565b820191906000526020600020905b8154815290600101906020018083116108de57829003601f168201915b5050505050908060050160009054906101000a900473ffffffffffffffffffffffffffffffffffffffff16908060060154908060070160009054906101000a900460ff16908060080154905089565b60008054906101000a900473ffffffffffffffffffffffffffffffffffffffff1673ffffffffffffffffffffffffffffffffffffffff163373ffffffffffffffffffffffffffffffffffffffff16146109d8576040517f08c379a00000000000000000000000000000000000000000000000000000000081526004016109cf9061188f565b60405180910390fd5b60006003600084815260200190815260200160002090508060070160009054906101000a900460ff16610a40576040517f08c379a0000000000000000000000000000000000000000000000000000000008152600401610a37906118fb565b60405180910390fd5b81600560008360050160009054906101000a900473ffffffffffffffffffffffffffffffffffffffff1673ffffffffffffffffffffffffffffffffffffffff1673ffffffffffffffffffffffffffffffffffffffff1681526020019081526020016000206000828254610ab391906114e9565b9250508190555081816008016000828254610ace91906114e9565b92505081905550505050565b6040518060c0016040528060025481526020018381526020018281526020013373ffffffffffffffffffffffffffffffffffffffff168152602001600081526020016000815250600460006002548152602001908152602001600020600082015181600001556020820151816001019081610b559190611729565b506040820151816002019081610b6b9190611729565b5060608201518160030160006101000a81548173ffffffffffffffffffffffffffffffffffffffff021916908373ffffffffffffffffffffffffffffffffffffffff1602179055506080820151816004015560a0820151816005015590505060026000815480929190610bdd906117fb565b91905055505050565b60006004600084815260200190815260200160002090508060030160009054906101000a900473ffffffffffffffffffffffffffffffffffffffff1673ffffffffffffffffffffffffffffffffffffffff163373ffffffffffffffffffffffffffffffffffffffff1614610c8f576040517f08c379a0000000000000000000000000000000000000000000000000000000008152600401610c869061149a565b60405180910390fd5b81600560003373ffffffffffffffffffffffffffffffffffffffff1673ffffffffffffffffffffffffffffffffffffffff168152602001908152602001600020541015610d11576040517f08c379a0000000000000000000000000000000000000000000000000000000008152600401610d0890611967565b60405180910390fd5b81600560003373ffffffffffffffffffffffffffffffffffffffff1673ffffffffffffffffffffffffffffffffffffffff1681526020019081526020016000206000828254610d609190611987565b9250508190555081816005016000828254610d7b91906114e9565b92505081905550505050565b60015481565b60008054906101000a900473ffffffffffffffffffffffffffffffffffffffff1673ffffffffffffffffffffffffffffffffffffffff163373ffffffffffffffffffffffffffffffffffffffff1614610e1b576040517f08c379a0000000000000000000000000000000000000000000000000000000008152600401610e1290611a07565b60405180910390fd5b60016003600083815260200190815260200160002060070160006101000a81548160ff02191690831515021790555050565b60008054906101000a900473ffffffffffffffffffffffffffffffffffffffff1681565b6000604051905090565b600080fd5b600080fd5b600073ffffffffffffffffffffffffffffffffffffffff82169050919050565b6000610eb082610e85565b9050919050565b610ec081610ea5565b8114610ecb57600080fd5b50565b600081359050610edd81610eb7565b92915050565b600060208284031215610ef957610ef8610e7b565b5b6000610f0784828501610ece565b91505092915050565b6000819050919050565b610f2381610f10565b82525050565b6000602082019050610f3e6000830184610f1a565b92915050565b610f4d81610f10565b8114610f5857600080fd5b50565b600081359050610f6a81610f44565b92915050565b60008060408385031215610f8757610f86610e7b565b5b6000610f9585828601610f5b565b9250506020610fa685828601610f5b565b9150509250929050565b600060208284031215610fc657610fc5610e7b565b5b6000610fd484828501610f5b565b91505092915050565b600081519050919050565b600082825260208201905092915050565b60005b83811015611017578082015181840152602081019050610ffc565b60008484015250505050565b6000601f19601f8301169050919050565b600061103f82610fdd565b6110498185610fe8565b9350611059818560208601610ff9565b61106281611023565b840191505092915050565b61107681610ea5565b82525050565b600060c0820190506110916000830189610f1a565b81810360208301526110a38188611034565b905081810360408301526110b78187611034565b90506110c6606083018661106d565b6110d36080830185610f1a565b6110e060a0830184610f1a565b979650505050505050565b600080fd5b600080fd5b7f4e487b7100000000000000000000000000000000000000000000000000000000600052604160045260246000fd5b61112d82611023565b810181811067ffffffffffffffff8211171561114c5761114b6110f5565b5b80604052505050565b600061115f610e71565b905061116b8282611124565b919050565b600067ffffffffffffffff82111561118b5761118a6110f5565b5b61119482611023565b9050602081019050919050565b82818337600083830152505050565b60006111c36111be84611170565b611155565b9050828152602081018484840111156111df576111de6110f0565b5b6111ea8482856111a1565b509392505050565b600082601f830112611207576112066110eb565b5b81356112178482602086016111b0565b91505092915050565b6000806000806080858703121561123a57611239610e7b565b5b600085013567ffffffffffffffff81111561125857611257610e80565b5b611264878288016111f2565b945050602085013567ffffffffffffffff81111561128557611284610e80565b5b611291878288016111f2565b935050604085013567ffffffffffffffff8111156112b2576112b1610e80565b5b6112be878288016111f2565b925050606085013567ffffffffffffffff8111156112df576112de610e80565b5b6112eb878288016111f2565b91505092959194509250565b60008115159050919050565b61130c816112f7565b82525050565b600061012082019050611328600083018c610f1a565b818103602083015261133a818b611034565b9050818103604083015261134e818a611034565b905081810360608301526113628189611034565b905081810360808301526113768188611034565b905061138560a083018761106d565b61139260c0830186610f1a565b61139f60e0830185611303565b6113ad610100830184610f1a565b9a9950505050505050505050565b600080604083850312156113d2576113d1610e7b565b5b600083013567ffffffffffffffff8111156113f0576113ef610e80565b5b6113fc858286016111f2565b925050602083013567ffffffffffffffff81111561141d5761141c610e80565b5b611429858286016111f2565b9150509250929050565b6000602082019050611448600083018461106d565b92915050565b7f4e6f7420796f757220656d6974746572207265636f7264000000000000000000600082015250565b6000611484601783610fe8565b915061148f8261144e565b602082019050919050565b600060208201905081810360008301526114b381611477565b9050919050565b7f4e487b7100000000000000000000000000000000000000000000000000000000600052601160045260246000fd5b60006114f482610f10565b91506114ff83610f10565b9250828201905080821115611517576115166114ba565b5b92915050565b7f4e487b7100000000000000000000000000000000000000000000000000000000600052602260045260246000fd5b6000600282049050600182168061156457607f821691505b6020821081036115775761157661151d565b5b50919050565b60008190508160005260206000209050919050565b60006020601f8301049050919050565b600082821b905092915050565b6000600883026115df7fffffffffffffffffffffffffffffffffffffffffffffffffffffffffffffffff826115a2565b6115e986836115a2565b95508019841693508086168417925050509392505050565b6000819050919050565b600061162661162161161c84610f10565b611601565b610f10565b9050919050565b6000819050919050565b6116408361160b565b61165461164c8261162d565b8484546115af565b825550505050565b600090565b61166961165c565b611674818484611637565b505050565b5b818110156116985761168d600082611661565b60018101905061167a565b5050565b601f8211156116dd576116ae8161157d565b6116b784611592565b810160208510156116c6578190505b6116da6116d285611592565b830182611679565b50505b505050565b600082821c905092915050565b6000611700600019846008026116e2565b1980831691505092915050565b600061171983836116ef565b9150826002028217905092915050565b61173282610fdd565b67ffffffffffffffff81111561174b5761174a6110f5565b5b611755825461154c565b61176082828561169c565b600060209050601f8311600181146117935760008415611781578287015190505b61178b858261170d565b8655506117f3565b601f1984166117a18661157d565b60005b828110156117c9578489015182556001820191506020850194506020810190506117a4565b868310156117e657848901516117e2601f8916826116ef565b8355505b6001600288020188555050505b505050505050565b600061180682610f10565b91507fffffffffffffffffffffffffffffffffffffffffffffffffffffffffffffffff8203611838576118376114ba565b5b600182019050919050565b7f4f6e6c792061646d696e2063616e206d696e7400000000000000000000000000600082015250565b6000611879601383610fe8565b915061188482611843565b602082019050919050565b600060208201905081810360008301526118a88161186c565b9050919050565b7f50726f6a656374206e6f74207665726966696564000000000000000000000000600082015250565b60006118e5601483610fe8565b91506118f0826118af565b602082019050919050565b60006020820190508181036000830152611914816118d8565b9050919050565b7f4e6f7420656e6f75676820637265646974730000000000000000000000000000600082015250565b6000611951601283610fe8565b915061195c8261191b565b602082019050919050565b6000602082019050818103600083015261198081611944565b9050919050565b600061199282610f10565b915061199d83610f10565b92508282039050818111156119b5576119b46114ba565b5b92915050565b7f4f6e6c792061646d696e2063616e207665726966790000000000000000000000600082015250565b60006119f1601583610fe8565b91506119fc826119bb565b602082019050919050565b60006020820190508181036000830152611a20816119e4565b905091905056fea26469706673582212201a02018bc4e28a44cdfb2b17e04d0ae7774bb5a3ec38fb04b23e783c59c5fd8764736f6c634300081c0033",
  "linkReferences": {},
  "deployedLinkReferences": {}
}